:020000040000FA
:100000008A110A1208280000000000000000000009
:10001000283084005830A0008001840AA00B0C28EE
:1000200050309500C330960000308E0000308F00B5
:10003000013090000B309700831686309F008312AA
:10004000003085008316FF30850083120030860063
:100050008316A83086008312003087008316FF3095
:1000600087008312003088008316FF3088008312D7
:100070000030890083160730890083120C1D3E284A
:100080000C116400A914A9182915A91C2911A9117A
:1000900029192916291D2912A91A4F282912291EA2
:1000A0005228A91529192916291D2912291B592851
:1000B0002912291E5C28A915A9192915A91D29117C
:1000C000291D772800302B0203196D28A000200974
:1000D0002B05A006A01B7228762863302A02031C79
:1000E00072287628AA0F7528AB0A29117B280030C0
:1000F000AA000030AB00291D7E280614A918291576
:10010000A91C2911291B85282911291D9C2800308B
:100110002D0203199228A00020092D05A006A01B7E
:1001200097289B28C7302C02031C97289B28AC0FCC
:100130009A28AD0A2911A0280030AC000030AD008B
:10014000291DA3288614A9182915A91C2911A9134A
:1001500029192E14291D2E10A91AAF282E102E1C75
:10016000C628003030020319BC28A0002009300541
:10017000A006A01BC128C52863302F02031CC1287C
:10018000C528AF0FC428B00A2E10CA280030AF000F
:100190000030B0002E1CCD28A91729192E14291DB6
:1001A0002E10291BD4282E102E1CEB2801303202D1
:1001B0000319E128A00020093205A006A01BE628AB
:1001C000EA282B303102031CE628EA28B10FE9287F
:1001D000B20A2E10EF280030B1000030B2002E1C01
:1001E000F228A917A91B2915A91F2911291DF928CA
:1001F0000615A9182915A91C2911A91A00292911C0
:10020000291D17290030340203190D29A0002009E7
:100210003405A006A01B12291629C7303302031C7F
:1002200012291629B30F1529B40A29111B290030E8
:10023000B3000030B400291D1E290616A91829157F
:10024000A91C2911A91A25292911291D3C29013088
:10025000360203193229A00020093605A006A01B8A
:1002600037293B292B303502031C37293B29B50F91
:100270003A29B60A291140290030B5000030B600ED
:10028000291D43290617A9182915A91C2911851DFF
:100290004A29291106184D29291186185029291192
:1002A000061953292911AE1029192E15291D2E11B1
:1002B0002E1D5B2906102E1D5E29AE1429192E1540
:1002C000291D2E112E1D652986102E1D6829AE149C
:1002D00029192E15291D2E112E1D6F2906112E1DCF
:1002E0007229AE14AE182915AE1C2911A9182915AA
:1002F000A91C2911851D7D292911291D942900304A
:10030000380203198A29A00020093805A006A01B7D
:100310008F29932909303702031C8F299329B70F9E
:100320009229B80A291198290030B7000030B80086
:10033000AE1129192E16291D2E122E1AAE162E1E9A
:10034000AE122E1FA4292E12AE1A2E17AE1E2E1379
:10035000AE1FAB292E122E1EAE2929172E1EB12933
:10036000AE1529192E16291D2E122E1AAE162E1E66
:10037000AE12391CBC292E12AE1A3914AE1E391019
:10038000AE1BC3292E122E1EC62929132E1EC929C3
:10039000AE15AE192915AE1D2911A9182915A91CCC
:1003A0002911291BD42929112919AE17291DAE138A
:1003B000A9182915A91C2911051EDF2929110618BC
:1003C000E22929110619E5292911061AE829291116
:1003D000061BEB292911B91029193915291D3911C5
:1003E000391DF3290610391DF629B91429193915B3
:1003F000291D3911391DFD290611391D002AB9148D
:1004000029193915291D3911391D072A0612391DD7
:100410000A2AB91429193915291D3911391D112A2A
:100420000613391D142AB914B9182915B91C291134
:10043000A9182915A91C2911051E1F2A2911291DD2
:10044000362A00303B0203192C2AA00020093B0564
:10045000A006A01B312A352A09303A02031C312A92
:10046000352ABA0F342ABB0A29113A2A0030BA00B9
:100470000030BB00B91129193916291D3912391A52
:10048000AE16391EAE12B91E462A3912AE1AB91668
:10049000AE1EB912391F4D2A3912391E502AA9161B
:1004A000391E532AB91529193916291D3912391A35
:1004B000AE16391EAE12B91F5E2A3912AE1AB9171E
:1004C000AE1EB913391B652A3912391E682AA912C2
:1004D000391E6B2AB915B9192915B91D2911A91881
:1004E0002915A91C2911A91A762A291129193917A0
:0804F000291D39138A013E2881
:02400E00723FFF
:00000001FF
